:1000000002087590F0327401F090F031F090F02415
:10001000F090F026F090F023F090F022F090F013A2
:0E002000F0A3F0E4F5E9F5DE75DF40F5D1223E
:10003300020B6FE4900077F0A3F08FDE43DF023012
:1000430000FD30001BC200AFDDEFFEADDC7C00E441
:100053002DFFEC3EFE3395E0FDFC9000791203DCAE
:10006300900079E0FCA3E0FDA3E0FEA3E0FF229073
:10007300F0057402F075EA4053877F43874043914C
:100083002A90F5C07480F0A37464F0A374FFF02287
:0600930053B2EFD200326F
:10009B000200930203A8E86480F8E933E8336011A7
:1000AB000460F0ED33EC337009E8FCE9FDEAFEEB9C
:1000BB00FF220460DED3EB9FEA9EE99DE8C2E78C4A
:1000CB00F0C2F795F0400CE8CCF8E9CDF9EACEFA9E
:1000DB00EBCFFB12037385D0F05804700320D5B31C
:1000EB00E80470075002B2D50203B292D5EC04605B
:1000FB00F7E4CCC0E0C398F8603B94186008400D5F
:10010B00D0E0FB02038AE4FBFAC9FC8028E830E468
:10011B0006E4C9FBE4CAFCE830E305E4C9CACBFC3E
:10012B00E854076010F8C3E913F9EA13FAEB13FB71
:10013B00EC13FCD8F130F52FC3E49CFCEF9BFFEEE6
:10014B009AFEED99FDD0E0FBEF4E4D4C701222DB89
:10015B00030203AFEC2CFCEF33FFEE33FEED33FD6C
:10016B00ED30E7EB02038AEF2BFFEE3AFEED39FDA4
:10017B00D0E0FB50130BBB00030203B2ED13FDEEFB
:10018B0013FEEF13FFEC13FC02038AEC4D6011E836
:10019B00497017ED33EC3304600DE4FCFFFEFD22D8
:1001AB00E933E8330470F80203A8120373580460B0
:1001BB0009E4CC248150062850090203B2284003DD
:1001CB000203AFC0E0EB4A7044B98006D0E0FB02FB
:1001DB00039EEF4E701CBD8008EBFFEAFEE9FD802D
:1001EB00EBE98DF0A4FEE5F002027FE9CDF9EAFE22
:1001FB00EBFFEF89F0A4FCE5F0CE89F0A42EFFE431
:10020B0035F0CD89F0A42DFEE435F08067EF4E700C
:10021B0005BD80D780C3EF8BF0A4ACF0EE8BF0A4C0
:10022B002CFCE435F0F8EF8AF0A42CE5F038FCE474
:10023B0033CB8DF0A42CFCE5F03BF8EE8AF0A42C2C
:10024B00FCE5F038F8E433CF89F0A42CFCE5F0386A
:10025B00CF3400CE89F0A42FFFE5F03EFEE433C986
:10026B008DF0A42EFEE5F039CD8AF0A42FFFE5F03A
:10027B003EFEE43DFD33D0E0FB50070BBB000F020D
:10028B0003B2EC2CFCEF33FFEE33FEED33FD020338
:10029B008A0203B2EC5D046005E8590470030203A3
:1002AB00A8120373580460F6EC4860F2EC7004FD7E
:1002BB00FEFF22C860DB2481C85009C3986002503E
:1002CB00060203AF9850CAF582E9294B4A7005AB79
:1002DB008202039E75F0007C1A7880C3EF9BEE9A26
:1002EB00ED99400DC3EF9BFFEE9AFEED99FDE842B1
:1002FB00F0DC23ACF0D0E0FFD0E0FED0E0FDAB8231
:10030B0020E7101BEB60BAEC2CFCEF33FFEE33FE57
:10031B00ED33FD02038AE803F830E705C0F075F012
:10032B0000EF2FFFEE33FEED33FD40B830E7C28018
:10033B00AAEDD2E7CD33EC3392D524814006E4FF0E
:10034B00FEFDFC22FCE4CFCECDCC24E0501174FF9B
:10035B0080EDC3CC13CCCD13CDCE13CECF13CF04A6
:10036B0070F030D5DE0203BDE9D2E7C933E833F8CC
:10037B0092D5EDD2E7CD33EC33FC5002B2D522EC63
:10038B0030E7100FBF000C0EBE00080DBD00040BB4
:10039B00EB6014A2D5EB13FCED92E7FD2274FFFC8E
:1003AB00FDFEFF22E480F8A2D574FF13FC7D80E4F0
:1003BB0080EFC3E49FFFE49EFEE49DFDE49CFC22E2
:1003CB00EB9FF5F0EA9E42F0E99D42F0E89C45F088
:1003DB0022ECF0A3EDF0A3EEF0A3EFF022A88285C0
:1003EB0083F0D083D0821203FF1203FF1203FF129C
:1003FB0003FFE473E493A3C583C5F0C583C8C5822B
:10040B00C8F0A3C583C5F0C583C8C582C822E4FF65
:10041B00EFFDC394087480948040030205CBEF7505
:10042B00F006A42423F582E43400F583E0FE700388
:10043B000204F9EF75F006A42424F582E43400F5E8
:10044B0083E0FB90000FE0FAEBC39A40030205C771
:10045B00EF75F006A42423F582E43400F583E4F071
:10046B0074562FF582E43400F583E02401F582E421
:10047B003400F583E4F090007104F0ED7005D2B612
:10048B000205C7EFFD7C0064017005D2A10205C710
:10049B00ED64024C7005D2B00205C7ED64034C70DD
:1004AB0005D2A50205C7ED64044C7005D297020571
:1004BB00C7ED64054C7005D2950205C7ED64064C7B
:1004CB00701BD28474552FF582E43400F583E0243D
:1004DB0001F582E43400F583E4F00205C7EF64070D
:1004EB0060030205C7D296900000F00205C7EE60CC
:1004FB00030205C7EF75F006A42424F582E434004B
:10050B00F583E0D394127480948050030205C7EFF7
:10051B0075F006A42423F582E43400F5837401F00E
:10052B00744F2FF582E43400F583E0FE74562FF5FB
:10053B0082E43400F583E02401F582E43400F58392
:10054B00EEF09000717401F0EFFD7C007004C2B608
:10055B00806AED64014C7004C2A18060ED64024CB2
:10056B007004C2B08056ED64034C7004C2A5804C7D
:10057B00ED64044C7004C2978042ED64054C70042A
:10058B00C2958038ED64064C7026C284744F2FF5EB
:10059B0082E43400F583E0FE74552FF582E43400D9
:1005AB00F583E02401F582E43400F583EEF0800C52
:1005BB00EF64077007C29690000004F00F02041B53
:1005CB0022E4FF900074F0A31203E8417000009046
:1005DB0000791203E83F800000E4FBFA79C8784207
:1005EB00900075E0FCA3E0FDA3E0FEA3E0FF120288
:1005FB009FE4FBFA79C0784112019690007D1203BB
:10060B00DCE4FFFE7D407C41900079E0F8A3E0F94B
:10061B00A3E0FAA3E0FB1201969000811203DC9099
:10062B00007DE0FCA3E0FDA3E0FEA3E0FFA3E0F868
:10063B00A3E0F9A3E0FAA3E0FB1200A512033C90A0
:10064B000072EFF090007DE0F8A3E0F9A3E0FAA3CD
:10065B00E0FBA3E0FCA3E0FDA3E0FEA3E0FF1200A0
:10066B00A112033C90000FEFF0E4FFEFC39408746A
:10067B008094805068E4900074F0900074E0FEC3A6
:10068B009403748094805022EF75F006A4241FF518
:10069B0082E43400F583E5822EF582E43583F5831D
:1006AB00E4F0900074E004F080D0EF75F006A42421
:1006BB0022F582E43400F583E4F0EF75F006A42410
:1006CB0024F582E43400F583E4F0EF75F006A424FE
:1006DB0023F582E43400F583E4F00F808E22E4905E
:1006EB000074F0A3F0900074F0900074E0FFC394DA
:1006FB00087480948040030207E6900010E0FE909F
:10070B000074E0FD75F006A4241FF582E43400F5B7
:10071B0083E5822EF582E43583F583E0900076F055
:10072B0090001EE0FE900076E0FCA806088002C355
:10073B0013D8FC5401FEED75F006A42422F582E4D7
:10074B003400F583EEF0745C2FF582E43400F5830E
:10075B00E0FFE4FCFDFE120036E47BB07A04F9F80E
:10076B00D31203CB7F0140027F00900075EFF07F27
:10077B000070027F01900075EFF06015A3E0FF9011
:10078B00001EE0FEF87401088002C333D8FC4F80D2
:10079B0016900076E0FF90001EE0FEF874010880D2
:1007AB0002C333D8FCF45F900076F0900076E0FF44
:1007BB00900010E0FE900074E075F006A4241FF585
:1007CB0082E43400F583E5822EF582E43583F583EC
:1007DB00EFF0900074E004F00206F422E490007451
:1007EB00F0F0900074E0C39403748094805024C2A2
:1007FB00B6120B37D2B6C2B0120B37D2B0C2A1129F
:10080B000B37D2A1C2A5120B37D2A5900074E0040E
:10081B00F080CFE4900074F0900074E0C394037404
:10082B008094805016C297120B37D297C296120B38
:10083B0037D296900074E004F080DDE4900074F001
:10084B00900074E0C3940374809480501CC284C2E3
:10085B0095120B37120B37D284D295120B37120B22
:10086B0037900074E004F080D722787FE4F6D8FD4F
:10087B007581200208BC020ADEE493A3F8E493A37B
:10088B004003F68001F208DFF48029E493A3F854C7
:10089B0007240CC8C333C4540F4420C8834004F44A
:1008AB0056800146F6DFE4800B010204081020405D
:1008BB0080900A6EE47E019360BCA3FF543F30E549
:1008CB0009541FFEE493A360010ECF54C025E060D2
:1008DB00A840B8E493A3FAE493A3F8E493A3C8C5A0
:1008EB0082C8CAC583CAF0A3C8C582C8CAC583CA91
:1008FB00DFE9DEE780BEE4FFEFC3940874809480E9
:10090B005073900010E0FEEF75F006A4241FF582E3
:10091B00E43400F583E5822EF582E43583F583E03C
:10092B00900074F090001EE0FE900074E0FDA806AD
:10093B00088002C313D8FC5401900075F06011EFCE
:10094B0075F006A42424F582E43400F583E004F06A
:10095B00EF75F006A42422F582E43400F583E06001
:10096B0011EF75F006A42424F582E43400F583E03E
:10097B0014F00F808322900006E0240CFFA3E02FDD
:10098B00FFA3E02FFFA3E02FFFA3E02FFFA3E02F98
:10099B00FFA3E02FFFA3E02FA3F0E4FFEFC3940E20
:1009AB007480948050183001FD30010FC201740126
:1009BB002FF582E43400F583E0F5EB0F80DEE4FFE6
:1009CB00EFC3940D7480948050283001FD30011FCB
:1009DB00C201900000E0600A74112FF582E434002C
:1009EB00800874642FF582E43400F583E0F5EB0F97
:1009FB0080CE2243A34090F039E054BFF0D2B643EF
:100A0B00A301E054FEF0D2B043A20290F029E054CF
:100A1B00FDF0D2A143A220E054DFF0D2A543A18088
:100A2B0090F019E0547FF0D29743A140E054BFF00F
:100A3B00D296439A1090F009E054EFF0D28443A180
:100A4B002090F019E054DFF0D29553A3FB53A2EFA3
:100A5B0053A3FD53A2BF53A2F753A2FB53A1F753CA
:100A6B00A1EF22C181C1004100710041000000488B
:100A7B00005CBEBABDBCB9B7B6B84E000157AB00EF
:100A8B00020800000000000000000047004F525118
:100A9B00504F2C05044600560708090A0B0C4D0055
:100AAB001157AB00040702010000000000104D00BD
:100ABB006457AB000407020000000000000F410068
:100ACB00720041000F004100730041001000410013
:100ADB001E00001209FE1207E7120072120B7E12A3
:100AEB0000031205CC7596AA7596557597011206DB
:100AFB00E9120901120B56120419900071E06008FB
:100B0B00120981E4900071F0120B1880D87FEFEF7F
:100B1B00D394007480948040127E01EED3940074C1
:100B2B0080948040031E80F31F80E4227FF47E01BB
:100B3B007D2C7C0100000000ED1D70011CED4C7044
:100B4B00F3EF1F70011EEF4E70E62290001EE004C3
:100B5B00F0E06408700DF0900010E004F0E0640326
:100B6B007001F022C0E0E5EA30E10553EAFDD20165
:0F0B7B00D0E03275A84075B81075AA10D2AF221D
:00000001FF
